{
  "_format": "hh-sol-artifact-1",
  "contractName": "RollUp",
  "sourceName": "contracts/RollUp.sol",
  "abi": [
    {
      "inputs": [],
      "stateMutability": "nonpayable",
      "type": "constructor"
    },
    {
      "anonymous": false,
      "inputs": [
        {
          "indexed": false,
          "internalType": "uint64",
          "name": "_height",
          "type": "uint64"
        }
      ],
      "name": "AddedBlock",
      "type": "event"
    },
    {
      "anonymous": false,
      "inputs": [
        {
          "indexed": true,
          "internalType": "address",
          "name": "previousOwner",
          "type": "address"
        },
        {
          "indexed": true,
          "internalType": "address",
          "name": "newOwner",
          "type": "address"
        }
      ],
      "name": "OwnershipTransferred",
      "type": "event"
    },
    {
      "inputs": [
        {
          "internalType": "uint64",
          "name": "_height",
          "type": "uint64"
        },
        {
          "internalType": "bytes32",
          "name": "_curBlock",
          "type": "bytes32"
        },
        {
          "internalType": "bytes32",
          "name": "_prevBlock",
          "type": "bytes32"
        },
        {
          "internalType": "bytes32",
          "name": "_merkleRoot",
          "type": "bytes32"
        },
        {
          "internalType": "uint64",
          "name": "_timestamp",
          "type": "uint64"
        },
        {
          "internalType": "string",
          "name": "_cid",
          "type": "string"
        }
      ],
      "name": "add",
      "outputs": [],
      "stateMutability": "nonpayable",
      "type": "function"
    },
    {
      "inputs": [
        {
          "internalType": "bytes32",
          "name": "_blockHash",
          "type": "bytes32"
        }
      ],
      "name": "getByHash",
      "outputs": [
        {
          "internalType": "uint64",
          "name": "",
          "type": "uint64"
        },
        {
          "internalType": "bytes32",
          "name": "",
          "type": "bytes32"
        },
        {
          "internalType": "bytes32",
          "name": "",
          "type": "bytes32"
        },
        {
          "internalType": "bytes32",
          "name": "",
          "type": "bytes32"
        },
        {
          "internalType": "uint64",
          "name": "",
          "type": "uint64"
        },
        {
          "internalType": "string",
          "name": "",
          "type": "string"
        }
      ],
      "stateMutability": "view",
      "type": "function"
    },
    {
      "inputs": [
        {
          "internalType": "uint64",
          "name": "_height",
          "type": "uint64"
        }
      ],
      "name": "getByHeight",
      "outputs": [
        {
          "internalType": "uint64",
          "name": "",
          "type": "uint64"
        },
        {
          "internalType": "bytes32",
          "name": "",
          "type": "bytes32"
        },
        {
          "internalType": "bytes32",
          "name": "",
          "type": "bytes32"
        },
        {
          "internalType": "bytes32",
          "name": "",
          "type": "bytes32"
        },
        {
          "internalType": "uint64",
          "name": "",
          "type": "uint64"
        },
        {
          "internalType": "string",
          "name": "",
          "type": "string"
        }
      ],
      "stateMutability": "view",
      "type": "function"
    },
    {
      "inputs": [],
      "name": "getLastHeight",
      "outputs": [
        {
          "internalType": "uint64",
          "name": "",
          "type": "uint64"
        }
      ],
      "stateMutability": "view",
      "type": "function"
    },
    {
      "inputs": [],
      "name": "owner",
      "outputs": [
        {
          "internalType": "address",
          "name": "",
          "type": "address"
        }
      ],
      "stateMutability": "view",
      "type": "function"
    },
    {
      "inputs": [],
      "name": "renounceOwnership",
      "outputs": [],
      "stateMutability": "nonpayable",
      "type": "function"
    },
    {
      "inputs": [],
      "name": "size",
      "outputs": [
        {
          "internalType": "uint64",
          "name": "",
          "type": "uint64"
        }
      ],
      "stateMutability": "view",
      "type": "function"
    },
    {
      "inputs": [
        {
          "internalType": "address",
          "name": "newOwner",
          "type": "address"
        }
      ],
      "name": "transferOwnership",
      "outputs": [],
      "stateMutability": "nonpayable",
      "type": "function"
    }
  ],
  "bytecode": "0x608060405234801561001057600080fd5b5061002d61002261006360201b60201c565b61006b60201b60201c565b67ffffffffffffffff600060146101000a81548167ffffffffffffffff021916908367ffffffffffffffff16021790555061012f565b600033905090565b60008060009054906101000a900473ffffffffffffffffffffffffffffffffffffffff169050816000806101000a81548173ffffffffffffffffffffffffffffffffffffffff021916908373ffffffffffffffffffffffffffffffffffffffff1602179055508173ffffffffffffffffffffffffffffffffffffffff168173ffffffffffffffffffffffffffffffffffffffff167f8be0079c531659141344cd1fd0a4f28419497f9722a3daafe3b4186f6b6457e060405160405180910390a35050565b61158f8061013e6000396000f3fe608060405234801561001057600080fd5b50600436106100885760003560e01c8063a2dd3d471161005b578063a2dd3d47146100f1578063d77bd31014610126578063f2fde38b1461015b578063f87135671461017757610088565b80631202f0d01461008d578063715018a6146100ab5780638da5cb5b146100b5578063949d225d146100d3575b600080fd5b610095610193565b6040516100a29190611240565b60405180910390f35b6100b36101b0565b005b6100bd6101c4565b6040516100ca9190611145565b60405180910390f35b6100db6101ed565b6040516100e89190611240565b60405180910390f35b61010b60048036038101906101069190610d6e565b6101fa565b60405161011d9695949392919061125b565b60405180910390f35b610140600480360381019061013b9190610d97565b610486565b6040516101529695949392919061125b565b60405180910390f35b61017560048036038101906101709190610d45565b6106a6565b005b610191600480360381019061018c9190610dc0565b61072a565b005b60008060149054906101000a900467ffffffffffffffff16905090565b6101b8610ab1565b6101c26000610b2f565b565b60008060009054906101000a900473ffffffffffffffffffffffffffffffffffffffff16905090565b6000600180549050905090565b6000806000806000606060208060ff161461024a576040517f08c379a000000000000000000000000000000000000000000000000000000000815260040161024190611220565b60405180910390fd5b6002600088815260200190815260200160002060000160089054906101000a900460ff166102ad576040517f08c379a00000000000000000000000000000000000000000000000000000000081526004016102a4906111a0565b60405180910390fd5b60006002600089815260200190815260200160002060000160009054906101000a900467ffffffffffffffff169050600060018267ffffffffffffffff1681548110610322577f4e487b7100000000000000000000000000000000000000000000000000000000600052603260045260246000fd5b90600052602060002090600602016040518060c00160405290816000820160009054906101000a900467ffffffffffffffff1667ffffffffffffffff1667ffffffffffffffff1681526020016001820154815260200160028201548152602001600382015481526020016004820160009054906101000a900467ffffffffffffffff1667ffffffffffffffff1667ffffffffffffffff1681526020016005820180546103cd90611444565b80601f01602080910402602001604051908101604052809291908181526020018280546103f990611444565b80156104465780601f1061041b57610100808354040283529160200191610446565b820191906000526020600020905b81548152906001019060200180831161042957829003601f168201915b5050505050815250509050806000015181602001518260400151836060015184608001518560a00151975097509750975097509750505091939550919395565b60008060008060006060600060149054906101000a900467ffffffffffffffff1667ffffffffffffffff168767ffffffffffffffff1611156104fd576040517f08c379a00000000000000000000000000000000000000000000000000000000081526004016104f4906111c0565b60405180910390fd5b600060018867ffffffffffffffff1681548110610543577f4e487b7100000000000000000000000000000000000000000000000000000000600052603260045260246000fd5b90600052602060002090600602016040518060c00160405290816000820160009054906101000a900467ffffffffffffffff1667ffffffffffffffff1667ffffffffffffffff1681526020016001820154815260200160028201548152602001600382015481526020016004820160009054906101000a900467ffffffffffffffff1667ffffffffffffffff1667ffffffffffffffff1681526020016005820180546105ee90611444565b80601f016020809104026020016040519081016040528092919081815260200182805461061a90611444565b80156106675780601f1061063c57610100808354040283529160200191610667565b820191906000526020600020905b81548152906001019060200180831161064a57829003601f168201915b5050505050815250509050806000015181602001518260400151836060015184608001518560a001519650965096509650965096505091939550919395565b6106ae610ab1565b600073ffffffffffffffffffffffffffffffffffffffff168173ffffffffffffffffffffffffffffffffffffffff16141561071e576040517f08c379a000000000000000000000000000000000000000000000000000000000815260040161071590611180565b60405180910390fd5b61072781610b2f565b50565b610732610ab1565b67ffffffffffffffff8016600060149054906101000a900467ffffffffffffffff1667ffffffffffffffff16148015610775575060008667ffffffffffffffff16145b806107b557508567ffffffffffffffff166001600060149054906101000a900467ffffffffffffffff166107a99190611340565b67ffffffffffffffff16145b6107f4576040517f08c379a00000000000000000000000000000000000000000000000000000000081526004016107eb90611200565b60405180910390fd5b60008667ffffffffffffffff161415801561086f575060018087610818919061137e565b67ffffffffffffffff1681548110610859577f4e487b7100000000000000000000000000000000000000000000000000000000600052603260045260246000fd5b9060005260206000209060060201600101548414155b156108af576040517f08c379a00000000000000000000000000000000000000000000000000000000081526004016108a690611160565b60405180910390fd5b60006040518060c001604052808867ffffffffffffffff1681526020018781526020018681526020018581526020018467ffffffffffffffff168152602001838152509050600181908060018154018082558091505060019003906000526020600020906006020160009091909190915060008201518160000160006101000a81548167ffffffffffffffff021916908367ffffffffffffffff16021790555060208201518160010155604082015181600201556060820151816003015560808201518160040160006101000a81548167ffffffffffffffff021916908367ffffffffffffffff16021790555060a08201518160050190805190602001906109b8929190610bfb565b505050600060405180604001604052808967ffffffffffffffff168152602001600115158152509050806002600089815260200190815260200160002060008201518160000160006101000a81548167ffffffffffffffff021916908367ffffffffffffffff16021790555060208201518160000160086101000a81548160ff02191690831515021790555090505087600060146101000a81548167ffffffffffffffff021916908367ffffffffffffffff1602179055507f18930a17a04803d37b0e402f63ab794a1d068bd6dacf49e2758c15372879da6188604051610a9f9190611240565b60405180910390a15050505050505050565b610ab9610bf3565b73ffffffffffffffffffffffffffffffffffffffff16610ad76101c4565b73ffffffffffffffffffffffffffffffffffffffff1614610b2d576040517f08c379a0000000000000000000000000000000000000000000000000000000008152600401610b24906111e0565b60405180910390fd5b565b60008060009054906101000a900473ffffffffffffffffffffffffffffffffffffffff169050816000806101000a81548173ffffffffffffffffffffffffffffffffffffffff021916908373ffffffffffffffffffffffffffffffffffffffff1602179055508173ffffffffffffffffffffffffffffffffffffffff168173ffffffffffffffffffffffffffffffffffffffff167f8be0079c531659141344cd1fd0a4f28419497f9722a3daafe3b4186f6b6457e060405160405180910390a35050565b600033905090565b828054610c0790611444565b90600052602060002090601f016020900481019282610c295760008555610c70565b82601f10610c4257805160ff1916838001178555610c70565b82800160010185558215610c70579182015b82811115610c6f578251825591602001919060010190610c54565b5b509050610c7d9190610c81565b5090565b5b80821115610c9a576000816000905550600101610c82565b5090565b6000610cb1610cac846112f4565b6112c3565b905082815260208101848484011115610cc957600080fd5b610cd4848285611402565b509392505050565b600081359050610ceb81611514565b92915050565b600081359050610d008161152b565b92915050565b600082601f830112610d1757600080fd5b8135610d27848260208601610c9e565b91505092915050565b600081359050610d3f81611542565b92915050565b600060208284031215610d5757600080fd5b6000610d6584828501610cdc565b91505092915050565b600060208284031215610d8057600080fd5b6000610d8e84828501610cf1565b91505092915050565b600060208284031215610da957600080fd5b6000610db784828501610d30565b91505092915050565b60008060008060008060c08789031215610dd957600080fd5b6000610de789828a01610d30565b9650506020610df889828a01610cf1565b9550506040610e0989828a01610cf1565b9450506060610e1a89828a01610cf1565b9350506080610e2b89828a01610d30565b92505060a087013567ffffffffffffffff811115610e4857600080fd5b610e5489828a01610d06565b9150509295509295509295565b610e6a816113b2565b82525050565b610e79816113c4565b82525050565b6000610e8a82611324565b610e94818561132f565b9350610ea4818560208601611411565b610ead81611503565b840191505092915050565b6000610ec5602b8361132f565b91507f453030323a205468652070726576696f757320626c6f636b206861736820697360008301527f206e6f742076616c69642e0000000000000000000000000000000000000000006020830152604082019050919050565b6000610f2b60268361132f565b91507f4f776e61626c653a206e6577206f776e657220697320746865207a65726f206160008301527f64647265737300000000000000000000000000000000000000000000000000006020830152604082019050919050565b6000610f91602c8361132f565b91507f453030353a204e6f20636f72726573706f6e64696e6720626c6f636b2068617360008301527f68206b65792076616c75652e00000000000000000000000000000000000000006020830152604082019050919050565b6000610ff760288361132f565b91507f453030333a204d757374206265206e6f74206d6f7265207468616e206c61737460008301527f206865696768742e0000000000000000000000000000000000000000000000006020830152604082019050919050565b600061105d60208361132f565b91507f4f776e61626c653a2063616c6c6572206973206e6f7420746865206f776e65726000830152602082019050919050565b600061109d601a8361132f565b91507f453030313a2048656967687420697320696e636f72726563742e0000000000006000830152602082019050919050565b60006110dd60238361132f565b91507f453030343a205468652068617368206c656e677468206973206e6f742076616c60008301527f69642e00000000000000000000000000000000000000000000000000000000006020830152604082019050919050565b61113f816113ee565b82525050565b600060208201905061115a6000830184610e61565b92915050565b6000602082019050818103600083015261117981610eb8565b9050919050565b6000602082019050818103600083015261119981610f1e565b9050919050565b600060208201905081810360008301526111b981610f84565b9050919050565b600060208201905081810360008301526111d981610fea565b9050919050565b600060208201905081810360008301526111f981611050565b9050919050565b6000602082019050818103600083015261121981611090565b9050919050565b60006020820190508181036000830152611239816110d0565b9050919050565b60006020820190506112556000830184611136565b92915050565b600060c0820190506112706000830189611136565b61127d6020830188610e70565b61128a6040830187610e70565b6112976060830186610e70565b6112a46080830185611136565b81810360a08301526112b68184610e7f565b9050979650505050505050565b6000604051905081810181811067ffffffffffffffff821117156112ea576112e96114d4565b5b8060405250919050565b600067ffffffffffffffff82111561130f5761130e6114d4565b5b601f19601f8301169050602081019050919050565b600081519050919050565b600082825260208201905092915050565b600061134b826113ee565b9150611356836113ee565b92508267ffffffffffffffff0382111561137357611372611476565b5b828201905092915050565b6000611389826113ee565b9150611394836113ee565b9250828210156113a7576113a6611476565b5b828203905092915050565b60006113bd826113ce565b9050919050565b6000819050919050565b600073ffffffffffffffffffffffffffffffffffffffff82169050919050565b600067ffffffffffffffff82169050919050565b82818337600083830152505050565b60005b8381101561142f578082015181840152602081019050611414565b8381111561143e576000848401525b50505050565b6000600282049050600182168061145c57607f821691505b602082108114156114705761146f6114a5565b5b50919050565b7f4e487b7100000000000000000000000000000000000000000000000000000000600052601160045260246000fd5b7f4e487b7100000000000000000000000000000000000000000000000000000000600052602260045260246000fd5b7f4e487b7100000000000000000000000000000000000000000000000000000000600052604160045260246000fd5b6000601f19601f8301169050919050565b61151d816113b2565b811461152857600080fd5b50565b611534816113c4565b811461153f57600080fd5b50565b61154b816113ee565b811461155657600080fd5b5056fea264697066735822122065da575338d1db4d160a2fbe5642b882d09129d41f462ab9d5a3ba59cb02449d64736f6c63430008000033",
  "linkReferences": {},
  "deployedLinkReferences": {}
}