{
  "_format": "hh-sol-artifact-1",
  "contractName": "RollUp",
  "sourceName": "contracts/RollUp.sol",
  "abi": [
    {
      "inputs": [],
      "stateMutability": "nonpayable",
      "type": "constructor"
    },
    {
      "anonymous": false,
      "inputs": [
        {
          "indexed": false,
          "internalType": "uint64",
          "name": "_height",
          "type": "uint64"
        }
      ],
      "name": "AddedBlock",
      "type": "event"
    },
    {
      "anonymous": false,
      "inputs": [
        {
          "indexed": true,
          "internalType": "address",
          "name": "previousOwner",
          "type": "address"
        },
        {
          "indexed": true,
          "internalType": "address",
          "name": "newOwner",
          "type": "address"
        }
      ],
      "name": "OwnershipTransferred",
      "type": "event"
    },
    {
      "inputs": [
        {
          "internalType": "uint64",
          "name": "_height",
          "type": "uint64"
        },
        {
          "internalType": "bytes32",
          "name": "_curBlock",
          "type": "bytes32"
        },
        {
          "internalType": "bytes32",
          "name": "_prevBlock",
          "type": "bytes32"
        },
        {
          "internalType": "bytes32",
          "name": "_merkleRoot",
          "type": "bytes32"
        },
        {
          "internalType": "uint64",
          "name": "_timestamp",
          "type": "uint64"
        },
        {
          "internalType": "string",
          "name": "_cid",
          "type": "string"
        }
      ],
      "name": "add",
      "outputs": [],
      "stateMutability": "nonpayable",
      "type": "function"
    },
    {
      "inputs": [
        {
          "internalType": "uint64",
          "name": "_height",
          "type": "uint64"
        },
        {
          "internalType": "uint8",
          "name": "_size",
          "type": "uint8"
        }
      ],
      "name": "getByFromHeight",
      "outputs": [
        {
          "components": [
            {
              "internalType": "uint64",
              "name": "height",
              "type": "uint64"
            },
            {
              "internalType": "bytes32",
              "name": "curBlock",
              "type": "bytes32"
            },
            {
              "internalType": "bytes32",
              "name": "prevBlock",
              "type": "bytes32"
            },
            {
              "internalType": "bytes32",
              "name": "merkleRoot",
              "type": "bytes32"
            },
            {
              "internalType": "uint64",
              "name": "timestamp",
              "type": "uint64"
            },
            {
              "internalType": "string",
              "name": "CID",
              "type": "string"
            }
          ],
          "internalType": "struct RollUp.BlockHeader[]",
          "name": "",
          "type": "tuple[]"
        }
      ],
      "stateMutability": "view",
      "type": "function"
    },
    {
      "inputs": [
        {
          "internalType": "bytes32",
          "name": "_blockHash",
          "type": "bytes32"
        }
      ],
      "name": "getByHash",
      "outputs": [
        {
          "internalType": "uint64",
          "name": "",
          "type": "uint64"
        },
        {
          "internalType": "bytes32",
          "name": "",
          "type": "bytes32"
        },
        {
          "internalType": "bytes32",
          "name": "",
          "type": "bytes32"
        },
        {
          "internalType": "bytes32",
          "name": "",
          "type": "bytes32"
        },
        {
          "internalType": "uint64",
          "name": "",
          "type": "uint64"
        },
        {
          "internalType": "string",
          "name": "",
          "type": "string"
        }
      ],
      "stateMutability": "view",
      "type": "function"
    },
    {
      "inputs": [
        {
          "internalType": "uint64",
          "name": "_height",
          "type": "uint64"
        }
      ],
      "name": "getByHeight",
      "outputs": [
        {
          "internalType": "uint64",
          "name": "",
          "type": "uint64"
        },
        {
          "internalType": "bytes32",
          "name": "",
          "type": "bytes32"
        },
        {
          "internalType": "bytes32",
          "name": "",
          "type": "bytes32"
        },
        {
          "internalType": "bytes32",
          "name": "",
          "type": "bytes32"
        },
        {
          "internalType": "uint64",
          "name": "",
          "type": "uint64"
        },
        {
          "internalType": "string",
          "name": "",
          "type": "string"
        }
      ],
      "stateMutability": "view",
      "type": "function"
    },
    {
      "inputs": [],
      "name": "getLastHeight",
      "outputs": [
        {
          "internalType": "uint64",
          "name": "",
          "type": "uint64"
        }
      ],
      "stateMutability": "view",
      "type": "function"
    },
    {
      "inputs": [],
      "name": "owner",
      "outputs": [
        {
          "internalType": "address",
          "name": "",
          "type": "address"
        }
      ],
      "stateMutability": "view",
      "type": "function"
    },
    {
      "inputs": [],
      "name": "renounceOwnership",
      "outputs": [],
      "stateMutability": "nonpayable",
      "type": "function"
    },
    {
      "inputs": [],
      "name": "size",
      "outputs": [
        {
          "internalType": "uint64",
          "name": "",
          "type": "uint64"
        }
      ],
      "stateMutability": "view",
      "type": "function"
    },
    {
      "inputs": [
        {
          "internalType": "address",
          "name": "newOwner",
          "type": "address"
        }
      ],
      "name": "transferOwnership",
      "outputs": [],
      "stateMutability": "nonpayable",
      "type": "function"
    }
  ],
  "bytecode": "0x608060405234801561001057600080fd5b5061002d61002261006360201b60201c565b61006b60201b60201c565b67ffffffffffffffff600060146101000a81548167ffffffffffffffff021916908367ffffffffffffffff16021790555061012f565b600033905090565b60008060009054906101000a900473ffffffffffffffffffffffffffffffffffffffff169050816000806101000a81548173ffffffffffffffffffffffffffffffffffffffff021916908373ffffffffffffffffffffffffffffffffffffffff1602179055508173ffffffffffffffffffffffffffffffffffffffff168173ffffffffffffffffffffffffffffffffffffffff167f8be0079c531659141344cd1fd0a4f28419497f9722a3daafe3b4186f6b6457e060405160405180910390a35050565b611d5c8061013e6000396000f3fe608060405234801561001057600080fd5b50600436106100935760003560e01c8063a2dd3d4711610066578063a2dd3d47146100fc578063d5716e2314610131578063d77bd31014610161578063f2fde38b14610196578063f8713567146101b257610093565b80631202f0d014610098578063715018a6146100b65780638da5cb5b146100c0578063949d225d146100de575b600080fd5b6100a06101ce565b6040516100ad9190611910565b60405180910390f35b6100be6101eb565b005b6100c86101ff565b6040516100d591906117d3565b60405180910390f35b6100e6610228565b6040516100f39190611910565b60405180910390f35b610116600480360381019061011191906111f1565b610235565b6040516101289695949392919061192b565b60405180910390f35b61014b600480360381019061014691906112e4565b6104c1565b60405161015891906117ee565b60405180910390f35b61017b6004803603810190610176919061121a565b61086b565b60405161018d9695949392919061192b565b60405180910390f35b6101b060048036038101906101ab91906111c8565b610ac1565b005b6101cc60048036038101906101c79190611243565b610b45565b005b60008060149054906101000a900467ffffffffffffffff16905090565b6101f3610ecc565b6101fd6000610f4a565b565b60008060009054906101000a900473ffffffffffffffffffffffffffffffffffffffff16905090565b6000600180549050905090565b6000806000806000606060208060ff1614610285576040517f08c379a000000000000000000000000000000000000000000000000000000000815260040161027c906118f0565b60405180910390fd5b6002600088815260200190815260200160002060000160089054906101000a900460ff166102e8576040517f08c379a00000000000000000000000000000000000000000000000000000000081526004016102df90611850565b60405180910390fd5b60006002600089815260200190815260200160002060000160009054906101000a900467ffffffffffffffff169050600060018267ffffffffffffffff168154811061035d577f4e487b7100000000000000000000000000000000000000000000000000000000600052603260045260246000fd5b90600052602060002090600602016040518060c00160405290816000820160009054906101000a900467ffffffffffffffff1667ffffffffffffffff1667ffffffffffffffff1681526020016001820154815260200160028201548152602001600382015481526020016004820160009054906101000a900467ffffffffffffffff1667ffffffffffffffff1667ffffffffffffffff16815260200160058201805461040890611b9f565b80601f016020809104026020016040519081016040528092919081815260200182805461043490611b9f565b80156104815780601f1061045657610100808354040283529160200191610481565b820191906000526020600020905b81548152906001019060200180831161046457829003601f168201915b5050505050815250509050806000015181602001518260400151836060015184608001518560a00151975097509750975097509750505091939550919395565b606060008260ff161180156104da575060208260ff1611155b610519576040517f08c379a000000000000000000000000000000000000000000000000000000000815260040161051090611870565b60405180910390fd5b600060149054906101000a900467ffffffffffffffff1667ffffffffffffffff166001836105479190611acc565b60ff16846105559190611a5a565b67ffffffffffffffff1611158015610597575067ffffffffffffffff8016600060149054906101000a900467ffffffffffffffff1667ffffffffffffffff1614155b6105d6576040517f08c379a00000000000000000000000000000000000000000000000000000000081526004016105cd90611890565b60405180910390fd5b60008260ff1667ffffffffffffffff81111561061b577f4e487b7100000000000000000000000000000000000000000000000000000000600052604160045260246000fd5b60405190808252806020026020018201604052801561065457816020015b610641611016565b8152602001906001900390816106395790505b5090506000808590505b8460ff168661066d9190611a5a565b67ffffffffffffffff168167ffffffffffffffff16101561085f5760018167ffffffffffffffff16815481106106cc577f4e487b7100000000000000000000000000000000000000000000000000000000600052603260045260246000fd5b90600052602060002090600602016040518060c00160405290816000820160009054906101000a900467ffffffffffffffff1667ffffffffffffffff1667ffffffffffffffff1681526020016001820154815260200160028201548152602001600382015481526020016004820160009054906101000a900467ffffffffffffffff1667ffffffffffffffff1667ffffffffffffffff16815260200160058201805461077790611b9f565b80601f01602080910402602001604051908101604052809291908181526020018280546107a390611b9f565b80156107f05780601f106107c5576101008083540402835291602001916107f0565b820191906000526020600020905b8154815290600101906020018083116107d357829003601f168201915b50505050508152505083838061080590611c02565b945060ff1681518110610841577f4e487b7100000000000000000000000000000000000000000000000000000000600052603260045260246000fd5b6020026020010181905250808061085790611bd1565b91505061065e565b50819250505092915050565b60008060008060006060600060149054906101000a900467ffffffffffffffff1667ffffffffffffffff168767ffffffffffffffff16111580156108d9575067ffffffffffffffff8016600060149054906101000a900467ffffffffffffffff1667ffffffffffffffff1614155b610918576040517f08c379a000000000000000000000000000000000000000000000000000000000815260040161090f90611890565b60405180910390fd5b600060018867ffffffffffffffff168154811061095e577f4e487b7100000000000000000000000000000000000000000000000000000000600052603260045260246000fd5b90600052602060002090600602016040518060c00160405290816000820160009054906101000a900467ffffffffffffffff1667ffffffffffffffff1667ffffffffffffffff1681526020016001820154815260200160028201548152602001600382015481526020016004820160009054906101000a900467ffffffffffffffff1667ffffffffffffffff1667ffffffffffffffff168152602001600582018054610a0990611b9f565b80601f0160208091040260200160405190810160405280929190818152602001828054610a3590611b9f565b8015610a825780601f10610a5757610100808354040283529160200191610a82565b820191906000526020600020905b815481529060010190602001808311610a6557829003601f168201915b5050505050815250509050806000015181602001518260400151836060015184608001518560a001519650965096509650965096505091939550919395565b610ac9610ecc565b600073ffffffffffffffffffffffffffffffffffffffff168173ffffffffffffffffffffffffffffffffffffffff161415610b39576040517f08c379a0000000000000000000000000000000000000000000000000000000008152600401610b3090611830565b60405180910390fd5b610b4281610f4a565b50565b610b4d610ecc565b67ffffffffffffffff8016600060149054906101000a900467ffffffffffffffff1667ffffffffffffffff16148015610b90575060008667ffffffffffffffff16145b80610bd057508567ffffffffffffffff166001600060149054906101000a900467ffffffffffffffff16610bc49190611a5a565b67ffffffffffffffff16145b610c0f576040517f08c379a0000000000000000000000000000000000000000000000000000000008152600401610c06906118d0565b60405180910390fd5b60008667ffffffffffffffff1614158015610c8a575060018087610c339190611a98565b67ffffffffffffffff1681548110610c74577f4e487b7100000000000000000000000000000000000000000000000000000000600052603260045260246000fd5b9060005260206000209060060201600101548414155b15610cca576040517f08c379a0000000000000000000000000000000000000000000000000000000008152600401610cc190611810565b60405180910390fd5b60006040518060c001604052808867ffffffffffffffff1681526020018781526020018681526020018581526020018467ffffffffffffffff168152602001838152509050600181908060018154018082558091505060019003906000526020600020906006020160009091909190915060008201518160000160006101000a81548167ffffffffffffffff021916908367ffffffffffffffff16021790555060208201518160010155604082015181600201556060820151816003015560808201518160040160006101000a81548167ffffffffffffffff021916908367ffffffffffffffff16021790555060a0820151816005019080519060200190610dd3929190611069565b505050600060405180604001604052808967ffffffffffffffff168152602001600115158152509050806002600089815260200190815260200160002060008201518160000160006101000a81548167ffffffffffffffff021916908367ffffffffffffffff16021790555060208201518160000160086101000a81548160ff02191690831515021790555090505087600060146101000a81548167ffffffffffffffff021916908367ffffffffffffffff1602179055507f18930a17a04803d37b0e402f63ab794a1d068bd6dacf49e2758c15372879da6188604051610eba9190611910565b60405180910390a15050505050505050565b610ed461100e565b73ffffffffffffffffffffffffffffffffffffffff16610ef26101ff565b73ffffffffffffffffffffffffffffffffffffffff1614610f48576040517f08c379a0000000000000000000000000000000000000000000000000000000008152600401610f3f906118b0565b60405180910390fd5b565b60008060009054906101000a900473ffffffffffffffffffffffffffffffffffffffff169050816000806101000a81548173ffffffffffffffffffffffffffffffffffffffff021916908373ffffffffffffffffffffffffffffffffffffffff1602179055508173ffffffffffffffffffffffffffffffffffffffff168173ffffffffffffffffffffffffffffffffffffffff167f8be0079c531659141344cd1fd0a4f28419497f9722a3daafe3b4186f6b6457e060405160405180910390a35050565b600033905090565b6040518060c00160405280600067ffffffffffffffff168152602001600080191681526020016000801916815260200160008019168152602001600067ffffffffffffffff168152602001606081525090565b82805461107590611b9f565b90600052602060002090601f01602090048101928261109757600085556110de565b82601f106110b057805160ff19168380011785556110de565b828001600101855582156110de579182015b828111156110dd5782518255916020019190600101906110c2565b5b5090506110eb91906110ef565b5090565b5b808211156111085760008160009055506001016110f0565b5090565b600061111f61111a846119c4565b611993565b90508281526020810184848401111561113757600080fd5b611142848285611b5d565b509392505050565b60008135905061115981611cca565b92915050565b60008135905061116e81611ce1565b92915050565b600082601f83011261118557600080fd5b813561119584826020860161110c565b91505092915050565b6000813590506111ad81611cf8565b92915050565b6000813590506111c281611d0f565b92915050565b6000602082840312156111da57600080fd5b60006111e88482850161114a565b91505092915050565b60006020828403121561120357600080fd5b60006112118482850161115f565b91505092915050565b60006020828403121561122c57600080fd5b600061123a8482850161119e565b91505092915050565b60008060008060008060c0878903121561125c57600080fd5b600061126a89828a0161119e565b965050602061127b89828a0161115f565b955050604061128c89828a0161115f565b945050606061129d89828a0161115f565b93505060806112ae89828a0161119e565b92505060a087013567ffffffffffffffff8111156112cb57600080fd5b6112d789828a01611174565b9150509295509295509295565b600080604083850312156112f757600080fd5b60006113058582860161119e565b9250506020611316858286016111b3565b9150509250929050565b600061132c838361172c565b905092915050565b61133d81611b00565b82525050565b600061134e82611a04565b6113588185611a27565b93508360208202850161136a856119f4565b8060005b858110156113a657848403895281516113878582611320565b945061139283611a1a565b925060208a0199505060018101905061136e565b50829750879550505050505092915050565b6113c181611b12565b82525050565b6113d081611b12565b82525050565b60006113e182611a0f565b6113eb8185611a38565b93506113fb818560208601611b6c565b61140481611cb9565b840191505092915050565b600061141a82611a0f565b6114248185611a49565b9350611434818560208601611b6c565b61143d81611cb9565b840191505092915050565b6000611455602b83611a49565b91507f453030323a205468652070726576696f757320626c6f636b206861736820697360008301527f206e6f742076616c69642e0000000000000000000000000000000000000000006020830152604082019050919050565b60006114bb602683611a49565b91507f4f776e61626c653a206e6577206f776e657220697320746865207a65726f206160008301527f64647265737300000000000000000000000000000000000000000000000000006020830152604082019050919050565b6000611521602c83611a49565b91507f453030353a204e6f20636f72726573706f6e64696e6720626c6f636b2068617360008301527f68206b65792076616c75652e00000000000000000000000000000000000000006020830152604082019050919050565b6000611587602483611a49565b91507f453030363a2053697a652061726520616c6c6f7765642066726f6d203120746f60008301527f2033322e000000000000000000000000000000000000000000000000000000006020830152604082019050919050565b60006115ed602883611a49565b91507f453030333a204d757374206265206e6f74206d6f7265207468616e206c61737460008301527f206865696768742e0000000000000000000000000000000000000000000000006020830152604082019050919050565b6000611653602083611a49565b91507f4f776e61626c653a2063616c6c6572206973206e6f7420746865206f776e65726000830152602082019050919050565b6000611693601a83611a49565b91507f453030313a2048656967687420697320696e636f72726563742e0000000000006000830152602082019050919050565b60006116d3602383611a49565b91507f453030343a205468652068617368206c656e677468206973206e6f742076616c60008301527f69642e00000000000000000000000000000000000000000000000000000000006020830152604082019050919050565b600060c08301600083015161174460008601826117b5565b50602083015161175760208601826113b8565b50604083015161176a60408601826113b8565b50606083015161177d60608601826113b8565b50608083015161179060808601826117b5565b5060a083015184820360a08601526117a882826113d6565b9150508091505092915050565b6117be81611b3c565b82525050565b6117cd81611b3c565b82525050565b60006020820190506117e86000830184611334565b92915050565b600060208201905081810360008301526118088184611343565b905092915050565b6000602082019050818103600083015261182981611448565b9050919050565b60006020820190508181036000830152611849816114ae565b9050919050565b6000602082019050818103600083015261186981611514565b9050919050565b600060208201905081810360008301526118898161157a565b9050919050565b600060208201905081810360008301526118a9816115e0565b9050919050565b600060208201905081810360008301526118c981611646565b9050919050565b600060208201905081810360008301526118e981611686565b9050919050565b60006020820190508181036000830152611909816116c6565b9050919050565b600060208201905061192560008301846117c4565b92915050565b600060c08201905061194060008301896117c4565b61194d60208301886113c7565b61195a60408301876113c7565b61196760608301866113c7565b61197460808301856117c4565b81810360a0830152611986818461140f565b9050979650505050505050565b6000604051905081810181811067ffffffffffffffff821117156119ba576119b9611c8a565b5b8060405250919050565b600067ffffffffffffffff8211156119df576119de611c8a565b5b601f19601f8301169050602081019050919050565b6000819050602082019050919050565b600081519050919050565b600081519050919050565b6000602082019050919050565b600082825260208201905092915050565b600082825260208201905092915050565b600082825260208201905092915050565b6000611a6582611b3c565b9150611a7083611b3c565b92508267ffffffffffffffff03821115611a8d57611a8c611c2c565b5b828201905092915050565b6000611aa382611b3c565b9150611aae83611b3c565b925082821015611ac157611ac0611c2c565b5b828203905092915050565b6000611ad782611b50565b9150611ae283611b50565b925082821015611af557611af4611c2c565b5b828203905092915050565b6000611b0b82611b1c565b9050919050565b6000819050919050565b600073ffffffffffffffffffffffffffffffffffffffff82169050919050565b600067ffffffffffffffff82169050919050565b600060ff82169050919050565b82818337600083830152505050565b60005b83811015611b8a578082015181840152602081019050611b6f565b83811115611b99576000848401525b50505050565b60006002820490506001821680611bb757607f821691505b60208210811415611bcb57611bca611c5b565b5b50919050565b6000611bdc82611b3c565b915067ffffffffffffffff821415611bf757611bf6611c2c565b5b600182019050919050565b6000611c0d82611b50565b915060ff821415611c2157611c20611c2c565b5b600182019050919050565b7f4e487b7100000000000000000000000000000000000000000000000000000000600052601160045260246000fd5b7f4e487b7100000000000000000000000000000000000000000000000000000000600052602260045260246000fd5b7f4e487b7100000000000000000000000000000000000000000000000000000000600052604160045260246000fd5b6000601f19601f8301169050919050565b611cd381611b00565b8114611cde57600080fd5b50565b611cea81611b12565b8114611cf557600080fd5b50565b611d0181611b3c565b8114611d0c57600080fd5b50565b611d1881611b50565b8114611d2357600080fd5b5056fea26469706673582212206c071215cd1af4ed2ff28f7fa340bf8755ed6ac47167085d3487047e3415279464736f6c63430008000033",
  "linkReferences": {},
  "deployedLinkReferences": {}
}